{
  "_format": "hh-sol-artifact-1",
  "contractName": "TaxSwap",
  "sourceName": "contracts/TaxSwap.sol",
  "abi": [
    {
      "inputs": [
        {
          "internalType": "address",
          "name": "initialOwner",
          "type": "address"
        },
        {
          "internalType": "address",
          "name": "_router",
          "type": "address"
        },
        {
          "internalType": "address",
          "name": "_token",
          "type": "address"
        },
        {
          "internalType": "address",
          "name": "_pairToken",
          "type": "address"
        },
        {
          "internalType": "address",
          "name": "_feesReceiver",
          "type": "address"
        }
      ],
      "stateMutability": "payable",
      "type": "constructor"
    },
    {
      "inputs": [
        {
          "internalType": "address",
          "name": "owner",
          "type": "address"
        }
      ],
      "name": "OwnableInvalidOwner",
      "type": "error"
    },
    {
      "inputs": [
        {
          "internalType": "address",
          "name": "account",
          "type": "address"
        }
      ],
      "name": "OwnableUnauthorizedAccount",
      "type": "error"
    },
    {
      "anonymous": false,
      "inputs": [
        {
          "indexed": false,
          "internalType": "uint256",
          "name": "_balance",
          "type": "uint256"
        }
      ],
      "name": "DistributeFees",
      "type": "event"
    },
    {
      "anonymous": false,
      "inputs": [
        {
          "indexed": false,
          "internalType": "string",
          "name": "reason",
          "type": "string"
        }
      ],
      "name": "Error",
      "type": "event"
    },
    {
      "anonymous": false,
      "inputs": [
        {
          "indexed": true,
          "internalType": "address",
          "name": "previousOwner",
          "type": "address"
        },
        {
          "indexed": true,
          "internalType": "address",
          "name": "newOwner",
          "type": "address"
        }
      ],
      "name": "OwnershipTransferred",
      "type": "event"
    },
    {
      "anonymous": false,
      "inputs": [
        {
          "indexed": false,
          "internalType": "address",
          "name": "_address",
          "type": "address"
        }
      ],
      "name": "SetFeesReceiver",
      "type": "event"
    },
    {
      "anonymous": false,
      "inputs": [
        {
          "indexed": false,
          "internalType": "address",
          "name": "_address",
          "type": "address"
        }
      ],
      "name": "SetPairToken",
      "type": "event"
    },
    {
      "anonymous": false,
      "inputs": [
        {
          "indexed": false,
          "internalType": "address",
          "name": "_address",
          "type": "address"
        }
      ],
      "name": "SetRouter",
      "type": "event"
    },
    {
      "anonymous": false,
      "inputs": [
        {
          "indexed": false,
          "internalType": "address",
          "name": "_address",
          "type": "address"
        }
      ],
      "name": "SetToken",
      "type": "event"
    },
    {
      "anonymous": false,
      "inputs": [
        {
          "indexed": false,
          "internalType": "uint256",
          "name": "_balance",
          "type": "uint256"
        }
      ],
      "name": "Withdraw",
      "type": "event"
    },
    {
      "anonymous": false,
      "inputs": [
        {
          "indexed": false,
          "internalType": "uint256",
          "name": "_balance",
          "type": "uint256"
        }
      ],
      "name": "WithdrawTokensToFeesReceiver",
      "type": "event"
    },
    {
      "inputs": [],
      "name": "distributeFees",
      "outputs": [],
      "stateMutability": "nonpayable",
      "type": "function"
    },
    {
      "inputs": [],
      "name": "feesReceiver",
      "outputs": [
        {
          "internalType": "address",
          "name": "",
          "type": "address"
        }
      ],
      "stateMutability": "view",
      "type": "function"
    },
    {
      "inputs": [],
      "name": "owner",
      "outputs": [
        {
          "internalType": "address",
          "name": "",
          "type": "address"
        }
      ],
      "stateMutability": "view",
      "type": "function"
    },
    {
      "inputs": [],
      "name": "pairToken",
      "outputs": [
        {
          "internalType": "address",
          "name": "",
          "type": "address"
        }
      ],
      "stateMutability": "view",
      "type": "function"
    },
    {
      "inputs": [],
      "name": "renounceOwnership",
      "outputs": [],
      "stateMutability": "nonpayable",
      "type": "function"
    },
    {
      "inputs": [],
      "name": "router",
      "outputs": [
        {
          "internalType": "contract IUniswapV2Router02",
          "name": "",
          "type": "address"
        }
      ],
      "stateMutability": "view",
      "type": "function"
    },
    {
      "inputs": [
        {
          "internalType": "address",
          "name": "_address",
          "type": "address"
        }
      ],
      "name": "setFeesReceiver",
      "outputs": [],
      "stateMutability": "nonpayable",
      "type": "function"
    },
    {
      "inputs": [
        {
          "internalType": "address",
          "name": "_address",
          "type": "address"
        }
      ],
      "name": "setPairToken",
      "outputs": [],
      "stateMutability": "nonpayable",
      "type": "function"
    },
    {
      "inputs": [
        {
          "internalType": "address",
          "name": "_address",
          "type": "address"
        }
      ],
      "name": "setRouter",
      "outputs": [],
      "stateMutability": "nonpayable",
      "type": "function"
    },
    {
      "inputs": [
        {
          "internalType": "address",
          "name": "_address",
          "type": "address"
        }
      ],
      "name": "setToken",
      "outputs": [],
      "stateMutability": "nonpayable",
      "type": "function"
    },
    {
      "inputs": [],
      "name": "token",
      "outputs": [
        {
          "internalType": "address",
          "name": "",
          "type": "address"
        }
      ],
      "stateMutability": "view",
      "type": "function"
    },
    {
      "inputs": [
        {
          "internalType": "address",
          "name": "newOwner",
          "type": "address"
        }
      ],
      "name": "transferOwnership",
      "outputs": [],
      "stateMutability": "nonpayable",
      "type": "function"
    },
    {
      "inputs": [],
      "name": "withdraw",
      "outputs": [],
      "stateMutability": "nonpayable",
      "type": "function"
    },
    {
      "inputs": [],
      "name": "withdrawTokensToFeesReceiver",
      "outputs": [],
      "stateMutability": "nonpayable",
      "type": "function"
    },
    {
      "stateMutability": "payable",
      "type": "receive"
    }
  ],
  "bytecode": "0x608060405260405162001e8c38038062001e8c8339818101604052810190620000299190620003d6565b84600073ffffffffffffffffffffffffffffffffffffffff168173ffffffffffffffffffffffffffffffffffffffff16036200009f5760006040517f1e4fbdf70000000000000000000000000000000000000000000000000000000081526004016200009691906200046f565b60405180910390fd5b620000b081620002a860201b60201c565b5080600160006101000a81548173ffffffffffffffffffffffffffffffffffffffff021916908373ffffffffffffffffffffffffffffffffffffffff16021790555082600260006101000a81548173ffffffffffffffffffffffffffffffffffffffff021916908373ffffffffffffffffffffffffffffffffffffffff16021790555081600360006101000a81548173ffffffffffffffffffffffffffffffffffffffff021916908373ffffffffffffffffffffffffffffffffffffffff16021790555083600460006101000a81548173ffffffffffffffffffffffffffffffffffffffff021916908373ffffffffffffffffffffffffffffffffffffffff160217905550600260009054906101000a900473ffffffffffffffffffffffffffffffffffffffff1673ffffffffffffffffffffffffffffffffffffffff1663095ea7b3600460009054906101000a900473ffffffffffffffffffffffffffffffffffffffff167fffffffffffffffffffffffffffffffffffffffffffffffffffffffffffffffff6040518363ffffffff1660e01b815260040162000256929190620004a7565b6020604051808303816000875af115801562000276573d6000803e3d6000fd5b505050506040513d601f19601f820116820180604052508101906200029c919062000511565b50505050505062000543565b60008060009054906101000a900473ffffffffffffffffffffffffffffffffffffffff169050816000806101000a81548173ffffffffffffffffffffffffffffffffffffffff021916908373ffffffffffffffffffffffffffffffffffffffff1602179055508173ffffffffffffffffffffffffffffffffffffffff168173ffffffffffffffffffffffffffffffffffffffff167f8be0079c531659141344cd1fd0a4f28419497f9722a3daafe3b4186f6b6457e060405160405180910390a35050565b600080fd5b600073ffffffffffffffffffffffffffffffffffffffff82169050919050565b60006200039e8262000371565b9050919050565b620003b08162000391565b8114620003bc57600080fd5b50565b600081519050620003d081620003a5565b92915050565b600080600080600060a08688031215620003f557620003f46200036c565b5b60006200040588828901620003bf565b95505060206200041888828901620003bf565b94505060406200042b88828901620003bf565b93505060606200043e88828901620003bf565b92505060806200045188828901620003bf565b9150509295509295909350565b620004698162000391565b82525050565b60006020820190506200048660008301846200045e565b92915050565b6000819050919050565b620004a1816200048c565b82525050565b6000604082019050620004be60008301856200045e565b620004cd602083018462000496565b9392505050565b60008115159050919050565b620004eb81620004d4565b8114620004f757600080fd5b50565b6000815190506200050b81620004e0565b92915050565b6000602082840312156200052a57620005296200036c565b5b60006200053a84828501620004fa565b91505092915050565b61193980620005536000396000f3fe6080604052600436106100e15760003560e01c8063bca93cf51161007f578063f2fde38b11610059578063f2fde38b14610257578063f887ea4014610280578063fc0c546a146102ab578063ff127431146102d6576100e8565b8063bca93cf5146101da578063c0d7865514610205578063f18e79511461022e576100e8565b80633de35b79116100bb5780633de35b7914610156578063715018a6146101815780638da5cb5b14610198578063bb57ad20146101c3576100e8565b8063093ed8ba146100ed578063144fa6d7146101165780633ccfd60b1461013f576100e8565b366100e857005b600080fd5b3480156100f957600080fd5b50610114600480360381019061010f91906112c3565b6102ed565b005b34801561012257600080fd5b5061013d600480360381019061013891906112c3565b6103e1565b005b34801561014b57600080fd5b506101546104d5565b005b34801561016257600080fd5b5061016b6105a6565b60405161017891906112ff565b60405180910390f35b34801561018d57600080fd5b506101966105cc565b005b3480156101a457600080fd5b506101ad6105e0565b6040516101ba91906112ff565b60405180910390f35b3480156101cf57600080fd5b506101d8610609565b005b3480156101e657600080fd5b506101ef610737565b6040516101fc91906112ff565b60405180910390f35b34801561021157600080fd5b5061022c600480360381019061022791906112c3565b61075d565b005b34801561023a57600080fd5b50610255600480360381019061025091906112c3565b610851565b005b34801561026357600080fd5b5061027e600480360381019061027991906112c3565b610945565b005b34801561028c57600080fd5b506102956109cb565b6040516102a29190611379565b60405180910390f35b3480156102b757600080fd5b506102c06109f1565b6040516102cd91906112ff565b60405180910390f35b3480156102e257600080fd5b506102eb610a17565b005b6102f5610bff565b80600073ffffffffffffffffffffffffffffffffffffffff168173ffffffffffffffffffffffffffffffffffffffff1603610365576040517f08c379a000000000000000000000000000000000000000000000000000000000815260040161035c906113f1565b60405180910390fd5b81600360006101000a81548173ffffffffffffffffffffffffffffffffffffffff021916908373ffffffffffffffffffffffffffffffffffffffff1602179055507fb5ccac45bc264b8f52d2305cba50ab5492c3b04b2185549fb63f93fffd6c376b826040516103d591906112ff565b60405180910390a15050565b6103e9610bff565b80600073ffffffffffffffffffffffffffffffffffffffff168173ffffffffffffffffffffffffffffffffffffffff1603610459576040517f08c379a0000000000000000000000000000000000000000000000000000000008152600401610450906113f1565b60405180910390fd5b81600260006101000a81548173ffffffffffffffffffffffffffffffffffffffff021916908373ffffffffffffffffffffffffffffffffffffffff1602179055507fefc1fd16ea80a922086ee4e995739d59b025c1bcea6d1f67855747480c83214b826040516104c991906112ff565b60405180910390a15050565b6104dd610bff565b600047905060008103610525576040517f08c379a000000000000000000000000000000000000000000000000000000000815260040161051c9061145d565b60405180910390fd5b3373ffffffffffffffffffffffffffffffffffffffff166108fc829081150290604051600060405180830381858888f1935050505015801561056b573d6000803e3d6000fd5b507f5b6b431d4476a211bb7d41c20d1aab9ae2321deee0d20be3d9fc9b1093fa6e3d8160405161059b9190611496565b60405180910390a150565b600360009054906101000a900473ffffffffffffffffffffffffffffffffffffffff1681565b6105d4610bff565b6105de6000610c86565b565b60008060009054906101000a900473ffffffffffffffffffffffffffffffffffffffff16905090565b610611610bff565b6000600260009054906101000a900473ffffffffffffffffffffffffffffffffffffffff1673ffffffffffffffffffffffffffffffffffffffff166370a08231306040518263ffffffff1660e01b815260040161066e91906112ff565b602060405180830381865afa15801561068b573d6000803e3d6000fd5b505050506040513d601f19601f820116820180604052508101906106af91906114dd565b9050600081036106f4576040517f08c379a00000000000000000000000000000000000000000000000000000000081526004016106eb9061145d565b60405180910390fd5b6106fd81610d4a565b7f98247f7bfe9bc0dd2082599235b06718b8222bf674552bd10b2c055051159bd28160405161072c9190611496565b60405180910390a150565b600160009054906101000a900473ffffffffffffffffffffffffffffffffffffffff1681565b610765610bff565b80600073ffffffffffffffffffffffffffffffffffffffff168173ffffffffffffffffffffffffffffffffffffffff16036107d5576040517f08c379a00000000000000000000000000000000000000000000000000000000081526004016107cc906113f1565b60405180910390fd5b81600460006101000a81548173ffffffffffffffffffffffffffffffffffffffff021916908373ffffffffffffffffffffffffffffffffffffffff1602179055507f6de4326a8b9054d72d9dbab97d27bc4edffadee7d966f5af9cc4eafdaf8e54558260405161084591906112ff565b60405180910390a15050565b610859610bff565b80600073ffffffffffffffffffffffffffffffffffffffff168173ffffffffffffffffffffffffffffffffffffffff16036108c9576040517f08c379a00000000000000000000000000000000000000000000000000000000081526004016108c0906113f1565b60405180910390fd5b81600160006101000a81548173ffffffffffffffffffffffffffffffffffffffff021916908373ffffffffffffffffffffffffffffffffffffffff1602179055507f739fe1a68aad7be430b27de30ccf7d935b85459de671a05e7d60ea3d567722958260405161093991906112ff565b60405180910390a15050565b61094d610bff565b600073ffffffffffffffffffffffffffffffffffffffff168173ffffffffffffffffffffffffffffffffffffffff16036109bf5760006040517f1e4fbdf70000000000000000000000000000000000000000000000000000000081526004016109b691906112ff565b60405180910390fd5b6109c881610c86565b50565b600460009054906101000a900473ffffffffffffffffffffffffffffffffffffffff1681565b600260009054906101000a900473ffffffffffffffffffffffffffffffffffffffff1681565b610a1f610bff565b6000600260009054906101000a900473ffffffffffffffffffffffffffffffffffffffff1673ffffffffffffffffffffffffffffffffffffffff166370a08231306040518263ffffffff1660e01b8152600401610a7c91906112ff565b602060405180830381865afa158015610a99573d6000803e3d6000fd5b505050506040513d601f19601f82011682018060405250810190610abd91906114dd565b905060008103610b02576040517f08c379a0000000000000000000000000000000000000000000000000000000008152600401610af99061145d565b60405180910390fd5b600260009054906101000a900473ffffffffffffffffffffffffffffffffffffffff1673ffffffffffffffffffffffffffffffffffffffff1663a9059cbb600160009054906101000a900473ffffffffffffffffffffffffffffffffffffffff16836040518363ffffffff1660e01b8152600401610b8192919061150a565b6020604051808303816000875af1158015610ba0573d6000803e3d6000fd5b505050506040513d601f19601f82011682018060405250810190610bc4919061156b565b507f92bc736ecd22831ae12c34ce4715c830e225402ac5a4796eea27da1a7bc238a381604051610bf49190611496565b60405180910390a150565b610c0761124e565b73ffffffffffffffffffffffffffffffffffffffff16610c256105e0565b73ffffffffffffffffffffffffffffffffffffffff1614610c8457610c4861124e565b6040517f118cdaa7000000000000000000000000000000000000000000000000000000008152600401610c7b91906112ff565b60405180910390fd5b565b60008060009054906101000a900473ffffffffffffffffffffffffffffffffffffffff169050816000806101000a81548173ffffffffffffffffffffffffffffffffffffffff021916908373ffffffffffffffffffffffffffffffffffffffff1602179055508173ffffffffffffffffffffffffffffffffffffffff168173ffffffffffffffffffffffffffffffffffffffff167f8be0079c531659141344cd1fd0a4f28419497f9722a3daafe3b4186f6b6457e060405160405180910390a35050565b6000600267ffffffffffffffff811115610d6757610d66611598565b5b604051908082528060200260200182016040528015610d955781602001602082028036833780820191505090505b509050600260009054906101000a900473ffffffffffffffffffffffffffffffffffffffff1681600081518110610dcf57610dce6115c7565b5b602002602001019073ffffffffffffffffffffffffffffffffffffffff16908173ffffffffffffffffffffffffffffffffffffffff1681525050600360009054906101000a900473ffffffffffffffffffffffffffffffffffffffff1681600181518110610e4057610e3f6115c7565b5b602002602001019073ffffffffffffffffffffffffffffffffffffffff16908173ffffffffffffffffffffffffffffffffffffffff168152505081600260009054906101000a900473ffffffffffffffffffffffffffffffffffffffff1673ffffffffffffffffffffffffffffffffffffffff1663dd62ed3e30600460009054906101000a900473ffffffffffffffffffffffffffffffffffffffff166040518363ffffffff1660e01b8152600401610efa9291906115f6565b602060405180830381865afa158015610f17573d6000803e3d6000fd5b505050506040513d601f19601f82011682018060405250810190610f3b91906114dd565b101561102557600260009054906101000a900473ffffffffffffffffffffffffffffffffffffffff1673ffffffffffffffffffffffffffffffffffffffff1663095ea7b3600460009054906101000a900473ffffffffffffffffffffffffffffffffffffffff167fffffffffffffffffffffffffffffffffffffffffffffffffffffffffffffffff6040518363ffffffff1660e01b8152600401610fe092919061150a565b6020604051808303816000875af1158015610fff573d6000803e3d6000fd5b505050506040513d601f19601f82011682018060405250810190611023919061156b565b505b600460009054906101000a900473ffffffffffffffffffffffffffffffffffffffff1673ffffffffffffffffffffffffffffffffffffffff16635c11d79583600084600160009054906101000a900473ffffffffffffffffffffffffffffffffffffffff16426040518663ffffffff1660e01b81526004016110ab959493929190611718565b600060405180830381600087803b1580156110c557600080fd5b505af19250505080156110d6575060015b611212576110e261177f565b806308c379a00361120157506110f66117e3565b806111015750611203565b600260009054906101000a900473ffffffffffffffffffffffffffffffffffffffff1673ffffffffffffffffffffffffffffffffffffffff1663a9059cbb600160009054906101000a900473ffffffffffffffffffffffffffffffffffffffff16856040518363ffffffff1660e01b815260040161118092919061150a565b6020604051808303816000875af115801561119f573d6000803e3d6000fd5b505050506040513d601f19601f820116820180604052508101906111c3919061156b565b507f08c379a0afcc32b1a39302f7cb8073359698411ab5fd6e3edb2c02c0b5fba8aa816040516111f391906118e1565b60405180910390a15061120d565b505b3d6000803e3d6000fd5b611213565b5b7f98247f7bfe9bc0dd2082599235b06718b8222bf674552bd10b2c055051159bd2826040516112429190611496565b60405180910390a15050565b600033905090565b6000604051905090565b600080fd5b600073ffffffffffffffffffffffffffffffffffffffff82169050919050565b600061129082611265565b9050919050565b6112a081611285565b81146112ab57600080fd5b50565b6000813590506112bd81611297565b92915050565b6000602082840312156112d9576112d8611260565b5b60006112e7848285016112ae565b91505092915050565b6112f981611285565b82525050565b600060208201905061131460008301846112f0565b92915050565b6000819050919050565b600061133f61133a61133584611265565b61131a565b611265565b9050919050565b600061135182611324565b9050919050565b600061136382611346565b9050919050565b61137381611358565b82525050565b600060208201905061138e600083018461136a565b92915050565b600082825260208201905092915050565b7f496e76616c696420616464726573730000000000000000000000000000000000600082015250565b60006113db600f83611394565b91506113e6826113a5565b602082019050919050565b6000602082019050818103600083015261140a816113ce565b9050919050565b7f496e73756666696369656e742066756e64730000000000000000000000000000600082015250565b6000611447601283611394565b915061145282611411565b602082019050919050565b600060208201905081810360008301526114768161143a565b9050919050565b6000819050919050565b6114908161147d565b82525050565b60006020820190506114ab6000830184611487565b92915050565b6114ba8161147d565b81146114c557600080fd5b50565b6000815190506114d7816114b1565b92915050565b6000602082840312156114f3576114f2611260565b5b6000611501848285016114c8565b91505092915050565b600060408201905061151f60008301856112f0565b61152c6020830184611487565b9392505050565b60008115159050919050565b61154881611533565b811461155357600080fd5b50565b6000815190506115658161153f565b92915050565b60006020828403121561158157611580611260565b5b600061158f84828501611556565b91505092915050565b7f4e487b7100000000000000000000000000000000000000000000000000000000600052604160045260246000fd5b7f4e487b7100000000000000000000000000000000000000000000000000000000600052603260045260246000fd5b600060408201905061160b60008301856112f0565b61161860208301846112f0565b9392505050565b6000819050919050565b600061164461163f61163a8461161f565b61131a565b61147d565b9050919050565b61165481611629565b82525050565b600081519050919050565b600082825260208201905092915050565b6000819050602082019050919050565b61168f81611285565b82525050565b60006116a18383611686565b60208301905092915050565b6000602082019050919050565b60006116c58261165a565b6116cf8185611665565b93506116da83611676565b8060005b8381101561170b5781516116f28882611695565b97506116fd836116ad565b9250506001810190506116de565b5085935050505092915050565b600060a08201905061172d6000830188611487565b61173a602083018761164b565b818103604083015261174c81866116ba565b905061175b60608301856112f0565b6117686080830184611487565b9695505050505050565b60008160e01c9050919050565b600060033d111561179e5760046000803e61179b600051611772565b90505b90565b6000601f19601f8301169050919050565b6117bb826117a1565b810181811067ffffffffffffffff821117156117da576117d9611598565b5b80604052505050565b600060443d10611870576117f5611256565b60043d036004823e80513d602482011167ffffffffffffffff8211171561181d575050611870565b808201805167ffffffffffffffff81111561183b5750505050611870565b80602083010160043d038501811115611858575050505050611870565b611867826020018501866117b2565b82955050505050505b90565b600081519050919050565b60005b8381101561189c578082015181840152602081019050611881565b60008484015250505050565b60006118b382611873565b6118bd8185611394565b93506118cd81856020860161187e565b6118d6816117a1565b840191505092915050565b600060208201905081810360008301526118fb81846118a8565b90509291505056fea26469706673582212208a2523521acebd77875a658d7d4e4095404f60bc33c71e69c3e35282348cd23b64736f6c63430008140033",
  "linkReferences": {},
  "deployedLinkReferences": {}
}